{
  "contractName": "Storage",
  "abi": [
    {
      "constant": true,
      "inputs": [],
      "name": "ipfsHash",
      "outputs": [
        {
          "name": "",
          "type": "string"
        }
      ],
      "payable": false,
      "stateMutability": "view",
      "type": "function"
    },
    {
      "anonymous": false,
      "inputs": [
        {
          "indexed": false,
          "name": "_ipfsHash",
          "type": "string"
        }
      ],
      "name": "StorageAdded",
      "type": "event"
    },
    {
      "constant": false,
      "inputs": [
        {
          "name": "_ipfsHash",
          "type": "string"
        }
      ],
      "name": "setStorage",
      "outputs": [
        {
          "name": "",
          "type": "string"
        }
      ],
      "payable": false,
      "stateMutability": "nonpayable",
      "type": "function"
    }
  ],
  "bytecode": "0x6060604052606060405190810160405280602e81526020017f516d53556643745867623539473974637a727a325775484e416265635635354b81526020017f5242475842625a6b6f753552744500000000000000000000000000000000000081525060009080519060200190610076929190610087565b50341561008257600080fd5b61012c565b828054600181600116156101000203166002900490600052602060002090601f016020900481019282601f106100c857805160ff19168380011785556100f6565b828001600101855582156100f6579182015b828111156100f55782518255916020019190600101906100da565b5b5090506101039190610107565b5090565b61012991905b8082111561012557600081600090555060010161010d565b5090565b90565b6103f88061013b6000396000f30060606040526004361061004c576000357c0100000000000000000000000000000000000000000000000000000000900463ffffffff168063a57b0b0b14610051578063c623674f14610127575b600080fd5b341561005c57600080fd5b6100ac600480803590602001908201803590602001908080601f016020809104026020016040519081016040528093929190818152602001838380828437820191505050505050919050506101b5565b6040518080602001828103825283818151815260200191508051906020019080838360005b838110156100ec5780820151818401526020810190506100d1565b50505050905090810190601f1680156101195780820380516001836020036101000a031916815260200191505b509250505060405180910390f35b341561013257600080fd5b61013a610275565b6040518080602001828103825283818151815260200191508051906020019080838360005b8381101561017a57808201518184015260208101905061015f565b50505050905090810190601f1680156101a75780820380516001836020036101000a031916815260200191505b509250505060405180910390f35b6101bd610313565b81600090805190602001906101d3929190610327565b507fa5df061c255877ba735ae12735880629e530bcf2d8f7b17da8e7c7be4a364284826040518080602001828103825283818151815260200191508051906020019080838360005b8381101561023657808201518184015260208101905061021b565b50505050905090810190601f1680156102635780820380516001836020036101000a031916815260200191505b509250505060405180910390a1919050565b60008054600181600116156101000203166002900480601f01602080910402602001604051908101604052809291908181526020018280546001816001161561010002031660029004801561030b5780601f106102e05761010080835404028352916020019161030b565b820191906000526020600020905b8154815290600101906020018083116102ee57829003601f168201915b505050505081565b602060405190810160405280600081525090565b828054600181600116156101000203166002900490600052602060002090601f016020900481019282601f1061036857805160ff1916838001178555610396565b82800160010185558215610396579182015b8281111561039557825182559160200191906001019061037a565b5b5090506103a391906103a7565b5090565b6103c991905b808211156103c55760008160009055506001016103ad565b5090565b905600a165627a7a7230582034703c943a7f86539caa34e4f618bd6ecbd6f5df1dda496979e06cec4d9410990029",
  "source": "pragma solidity ^0.4.2;\n\ncontract Storage {\n  string public ipfsHash = 'QmSUfCtXgb59G9tczrz2WuHNAbecV55KRBGXBbZkou5RtE';\n\n  event StorageAdded(string _ipfsHash);\n\n  function setStorage(string _ipfsHash) public returns (string){\n    ipfsHash = _ipfsHash;\n    StorageAdded(_ipfsHash);\n  }\n\n}\n",
  "sourcePath": "/Users/tovarishfin/dev/personal/ipfs-eth-simple-example/contracts/Storage.sol",
  "compiler": {
    "name": "solc",
    "version": "0.4.19+commit.c4cbbb05.Emscripten.clang"
  },
  "schemaVersion": "1.0.1",
  "updatedAt": "2018-02-10T18:25:29.580Z"
}